:02000004080AE8
:1000000000000A08E8190A080000050006000501BA
:080010000402CF000000000013
:1000180074170A0809480A4908B5884205D0094AE8
:10002800824202D0121A01F085FB0748074A0021D4
:10003800121A01F08AFB064808BD00BF0003002021
:10004800B8190A080803002008030020E80800205F
:10005800E808002070B500F03BFE074B074C1E4631
:10006800E41AA4080025A54204D056F8253098477C
:100078000135F8E770BD00BF70190A08A4190A080D
:1000880000F062B808B500F02CF8BDE8084000F0B0
:10009800DDBD00F031BB00F037BB0078B0FA80F06E
:1000A8004009704701230370704710B40C46036879
:1000B8001168206810BC1847012A02D0022A02D011
:1000C80004E0016002E00B6800B1036000207047A3
:1000D80010B58368044613B10322014698472046A9
:1000E80010BD704708B5032240F6B83302490348EB
:1000F80000F066F9012008BD480300202403002011
:1001080010B5074C237823B1064800F004F9002302
:1001180003E0FFF7E7FF08B101232370012010BDBA
:10012800004002402403002038B5002383608B6818
:1001380004460D462BB102229847EB68E360AB6892
:10014800A360204638BD000010B5154B8AB0029355
:10015800144B02A90593144B06A80493FFF7E4FF78
:10016800089B7BB11020FFF794FF044650B106A905
:10017800FFF7DAFF00230193009322460B490C484E
:1001880000F0AAFA06A8FFF7A3FF02A8FFF7A0FF4E
:10019800002301220749084800F096FA0AB010BD6A
:1001A80009010A08B3000A08C1000A0837070A0843
:1001B80088170A08004002409C170A0873B500F027
:1001C80079F901220092164E02230021154800F009
:1001D80064F800231A46144DFF21304600F02AF82F
:1001E80000231946114CFF22284600F023F800226C
:1001F800FF231146204600F01DF896E807000C4B37
:1002080083E8070095E8070003F10C06183386E831
:10021800070094E8070083E8070002B070BD00BF3C
:100228000C030020240300203C03002018030020B6
:100238004803002010B580E80E0010BD82B0F8B564
:10024800044606A880E80C004E6807980F68801BD3
:100258008D6801F021F8099901F072F801F036FA79
:1002680006440898401B01F017F8099901F068F84E
:1002780001F02CFA05440698C01B01F00DF8099905
:1002880001F05EF801F022FA384484E84100A560E4
:100298002046BDE8F84002B0704738B50446084625
:1002A80084E80D009DF81030012523732946256147
:1002B80080B200F055FD2946A08800F051FD208944
:1002C800294600F04DFD204638BD7FB5044604A8F8
:1002D80000E90E00237B0199029E039D206843B12B
:1002E80080B200F04EFD3146A08800F04AFD294654
:1002F8000BE0C1F1FF0180B200F043FDC6F1FF0140
:10030800A08800F03EFDC5F1FF01208904B0BDE8DA
:10031800704000F036BD1FB500230193029303938C
:1003280004AB13E90E00FFF7D0FF05B05DF804FB3E
:1003380070B5094C03692578002D14BF01264FF0CC
:10034800FF3633449342036101DA8B4202DC85F0C5
:100358000105257070BD00BF000300202DE9F041A4
:100368008AB0064613984FF0190803AD90FBF8F0D1
:1003780085E80E0000F090FF0746306900F08CFF1A
:10038800394601F091F8129B0190009307AC10AB2D
:1003980029460CCB2046FFF751FF94E80E00304663
:1003A800FFF793FF404600F0BFF9384601F08EF999
:1003B800002102463046FFF7BBFF0AB0BDE8F081D6
:1003C8002DE9F04FD0F810A08BB00546884691462D
:1003D8001E46294C294FBAF1000F0DD0192093FB66
:1003E800F0F000F059FF8346504600F055FF0146F3
:1003F800584601F039F968B123681F4A01334B4563
:1004080001DA136006E0002313603A780AB909F0AC
:1004180001033B7023680C245C430DF1100E08EBBC
:10042800040207CA8EE807005A1C914514BF04F15C
:100438000C01002107AC414407C984E8070003F018
:1004480001033A7883F001039A42039615BF94E8B2
:1004580007009EE807008DE807008DE8070018BF31
:100468009EE80E00284608BF94E80E00FFF776FFC6
:100478000BB0BDE8F08F00BF6C03002070030020B4
:1004880000F018B808B5024B1B681B6B019308BD38
:10049800D001060808B5024B1B685B68019308BDCC
:1004A8009C01060808B5024B1B685B69019308BDEF
:1004B8009C01060808B5024B1B681B68019308BD20
:1004C800B001060808B5024B1B685B68019308BDBC
:1004D800B001060808B5024B1B689B68019308BD6C
:1004E800B001060808B5024B1B68DB68019308BD1C
:1004F800B001060808B5024B1B689B6A019308BD4A
:10050800B001060808B5024B1B689B6F019308BD34
:10051800B001060808B5024B1B681B6E019308BDA5
:10052800AC01060808B5024B1B685B6E019308BD59
:10053800AC01060808B5024B1B689B6E019308BD09
:10054800AC01060808B5024B1B68DB6E019308BDB9
:10055800AC01060808B5024B1B681B6F019308BD68
:10056800AC01060808B5024B1B685B6F019308BD18
:10057800AC01060808B5034B1B68D3F8803001931B
:1005880008BD0000AC01060808B5024B1B68DB6912
:10059800019308BDB401060808B5024B1B681B6A25
:1005A800019308BDB401060808B5024B1B689B6996
:1005B800019308BDC401060808B5024B1B685B6AB5
:1005C800019308BDC401060808B5024B1B689B6A65
:1005D800019308BDC401060808B5024B1B68DB6A15
:1005E800019308BDC401060808B5024B1B681B6BC4
:1005F800019308BDC401060808B5024B1B685B6B74
:10060800019308BDC401060808B5024B1B689B6B23
:10061800019308BDC401060808B5024B1B681B6C92
:10062800019308BDC401060808B5024B1B681B6886
:10063800019308BDD801060808B5024B1B681B6961
:10064800019308BDD801060808B5024B1B685B6911
:10065800019308BDD801060808B5024B1B689B69C1
:10066800019308BDD801060808B5024B1B68DB6971
:10067800019308BDD801060808B5024B1B681B6A20
:10068800019308BDD801060808B5024B1B685B68D2
:10069800019308BDA401060808B5024B1B685B69F5
:1006A800019308BDA401060808B5024B1B685B6EE0
:1006B800019308BDA401060808B5024B1B689B6E90
:1006C800019308BDA401060808B5024B1B681B6806
:1006D800019308BDCC01060808B5024B1B685B6A8C
:1006E800019308BDCC01060808B5024B1B681B69BD
:1006F800019308BDC801060808B5024B1B681B68B2
:10070800019308BDA001060808B5024B1B685B6889
:10071800019308BDA001060808B5024B1B68DB6AF7
:10072800019308BDA00106080021FFF7B5BF07B572
:100738008DE8060082680AB900F0A9FBC36801AA1F
:100748006946984703B05DF804FB7047F8B506465C
:1007580015460C468F18BC4206D0336814F8011BA6
:100768009B6830469847F6E72846F8BD0022007C8B
:10077800FFF7D0BE0021007CFFF7D4BE0021007C2B
:10078800FFF7D8BE0021007CFFF7DCBE0021007C0B
:10079800FFF7E0BE10B50446FFF77DFC204610BD0C
:1007A80010B5044608464FF47A73A360044B002141
:1007B800207461602360FFF7DDFE204610BD00BF96
:1007C800B0170A080021007CFFF7CCBE704710B5AF
:1007D8000446FFF760FC204610BDF8B50F4600F14F
:1007E8000806051D002416F8011D0A22384600F0E7
:1007F80082F8AE42044407D0002CF4D02E213846AB
:1008080000F04CF80444EEE72046F8BD10B59DF81A
:10081800084044EA032343EA024242EA016104230E
:100828004160037510BD000037B5044D05609DF8A3
:1008380018500095FFF7EAFF03B030BDD8170A0833
:10084800014A024B1A6070479F180A087403002077
:10085800F8B506460D468F180024BD420CD0336803
:1008680015F8011B9B6830469847002801DB0444B3
:10087800F3E7002C08BF04462046F8BD70B50546CE
:100888000C46084649B100F068FF2B68024621462D
:100898002846BDE87040DB68184770BD03689B6850
:1008A8001847012A98BF0A2230B50B468BB00021A1
:1008B8008DF824100DF12304B3FBF2F505FB123378
:1008C800DBB2092B94BF30333733DBB2214604F84F
:1008D80001392B46002DEFD1FFF7D0FF0BB030BD0B
:1008E80010B422B90368C9B29B6810BC1847D2B2C9
:1008F80010BCFFF7D6BFFFF7F3BF10B50446FFF7EC
:10090800E7FB204610BD0000034800238360034A2C
:10091800034900F0B7BA00BF78030020080300209D
:1009280003090A08704710B50446FFF7B4FB2046D0
:1009380010BD000070B504460E46074B0025036045
:1009480040F80C5FFFF79EFD30462671FFF71CFE4E
:10095800A560204670BD00BFD0180A080079FFF7CF
:100968001BBE0020FFF790BE024B1A68024B1A60AC
:10097800704700BF040300208803002070474174BB
:100988007047007CFFF748BE007CFFF71DBE007C67
:10099800FFF72ABE007CFFF71FBE007CFFF72CBEC6
:1009A80010B50446FFF777FB204610BD70B5457CAF
:1009B80004460E4625B9007CFFF72EFE002805DD0B
:1009C8003146207CBDE87040FFF7F6BD284670BD73
:1009D80010B5044608461146002262604FF47A7248
:1009E800A260054A20742260012262741A46FFF749
:1009F800DBFD204610BD00BF0C190A08007CFFF77C
:100A080003BE000038B50C4D296811F0010411D15E
:100A18002846FFF742FB68B1084A2146084B0948B7
:100A2800FFF7D6FF2846FFF73DFB074A0749054869
:100A380000F028FA034838BD2404002028040020C8
:100A4800A00300208C0300200803002085090A0861
:100A58004174704770470021007CFFF7FDBD0121FC
:100A6800007CFFF7F9BD007CFFF7EEBD007CFFF7C7
:100A7800E3BD38B50446007C0D46FFF7E5FD0028C8
:100A880001DC607C20B12946207CFFF7EDFD0120C8
:100A980038BD007CFFF7F0BD10B50446FFF7FBFA40
:100AA800204610BD10B50446002363604FF47A73E6
:100AB800A360054B08462360012321746374114623
:100AC800FFF7B2FD204610BD3C190A0810B50446D0
:100AD8001422002100F039FE054B20466360054BC7
:100AE800E36040F2011323818123238210BD00BFFC
:100AF80031050020B004002030B50E4D87B001A8A4
:100B0800FFF7E4FF296811F0010410D12846FFF728
:100B1800C4FA60B101AA21460748FFF7C3FF284677
:100B2800FFF7C0FA054A0649034800F0ABF9024846
:100B380007B030BDAC0400203406002008030020B4
:100B48005D0A0A0810B504461422002100F0FDFDD4
:100B5800054B20466360054BE36040F20113238197
:100B68008123238210BD00BFE40600204C0600202C
:100B780010B50E4C86B001A8FFF7E4FF2368DB0729
:100B880010D42046FFF789FA60B101AA012108486C
:100B9800FFF788FF2046FFF785FA064A064904480A
:100BA80000F070F9024806B010BD00BF48060020EA
:100BB800D0060020080300205D0A0A0870470022BA
:100BC80011461046FFF790BD0348044B044A0549F7
:100BD800036000F057B900BFE80700206C190A0845
:100BE80008030020C50B0A0808B5144B33B1FFF7FA
:100BF80083FF03681B699847002816DC104B33B144
:100C0800FFF700FF03681B699847002810DC0D4BAD
:100C18000BB1AFF300800C4B7BB1FFF7A9FF036862
:100C28001B699847002806DC08BDAFF30080E5E79C
:100C3800AFF30080EBE7AFF3008008BD00000000D1
:100C480000000000000000000000000008B5FFF7E9
:100C5800CBFFFFF727FC014B186008BDF407002005
:100C68000248034A0349121A00F064BD00400240DA
:100C780008400240B0190A080020704737B5436899
:100C880004460A2B0ED0502B1CD1104B1D68CDB139
:100C9800037D4FF400710093C26800F1100380686F
:100CA800A84707E000F11003C2684FF4007180689C
:100CB800FFF7E2FF30B1002220461146FFF7FCFCA7
:100CC800012000E0002003B030BD00BFEC07002089
:100CD80038B50C4C0C4D2368AB420C4B0CBF0122B1
:100CE80000221A7002D0FFF7BBFF2560084B1BB12A
:100CF800FFF7D0FBAFF30080BDE83840002105487E
:100D0800FFF7D2BC044002401E1C279AF0070020BF
:100D180000000000850C0A0810B504460F48FFF7CC
:100D28001DFE28B1A4F10D03022B01D8002010BD2F
:100D380000F04EF8FFF746FD08B1012CF6D9FFF791
:100D480061FEFFF75BFE18B1A4F11203012BEDD988
:100D5800172C8CBF0020012010BD00BF28080020E0
:100D6800172838B504460D460AD8FF2908D0FFF7DA
:100D7800D3FF28B129462046BDE83840FFF7AABB73
:100D880038BD38B504460D46FFF7C6FFF0B104215B
:100D98002046FFF797FB042805D1A9B22046BDE8F5
:100DA8003840FFF7A7BB02212046FFF78BFB02283C
:100DB8000CD12046FFF796FB012801D0042805D165
:100DC80029462046BDE83840FFF79CBB38BD0000E7
:100DD80038B50B4D296811F001040FD12846FFF7EB
:100DE8005CF958B121460748FFF7DAFC2846FFF7B7
:100DF80059F9054A0549034800F044F8014838BD47
:100E0800F8070020FC0700200803002053070A0801
:100E180013B5084C00231A46194600932046FFF7DD
:100E280003FD2046044A054902B0BDE8104000F021
:100E380029B800BF1008002008030020D5070A08B9
:100E480070B50C4C0C4E0D4D00212046FFF772FD7D
:100E580020460B4C3246294600F014F80121204662
:100E6800FFF768FD324629462046BDE8704000F08D
:100E780009B800BF28080020080300202D090A0827
:100E8800380800200B460146184600F045BC08B556
:100E9800FFF742FC244B1A68D0075CBF01221A6096
:100EA800224B1A68D1075CBF01221A60204B1A68CE
:100EB800D2075CBF01221A601E4B1A68D0075CBFBC
:100EC80001221A601C4B1A68D1075CBF01221A6004
:100ED8001A4B1A68D2075CBF01221A60184B1A68AD
:100EE800D0075CBF01221A60164B1A68D1075CBF95
:100EF80001221A60144B1A68D2075CBF01221A60DB
:100F0800124B1A68D0075CBF01221A60104B1A688E
:100F1800D1075CBF01221A600E4B1A68D2075CBF6A
:100F280001221A60704700BF740800207008002072
:100F38006C08002068080020640800206008002071
:100F48005C080020580800205408002050080020A1
:100F58004C08002048080020184B1A68D1075CBFCD
:100F680001221A60164B1A68D2075CBF01221A6068
:100F7800144B1A68D0075CBF01221A60124B1A681A
:100F8800D1075CBF01221A60104B1A68D2075CBFF8
:100F980001221A600E4B1A68D0075CBF01221A6042
:100FA8000C4B1A68D1075CBF01221A600A4B1A68F9
:100FB800D2075CBF01221A60704700BF9408002066
:100FC800900800208C080020880800208408002051
:100FD800800800207C08002078080020184B1A6838
:100FE800D1075CBF01221A60164B1A68D2075CBF92
:100FF80001221A60144B1A68D0075CBF01221A60DC
:10100800124B1A68D1075CBF01221A60104B1A688C
:10101800D2075CBF01221A600E4B1A68D0075CBF6A
:1010280001221A600C4B1A68D1075CBF01221A60B2
:101038000A4B1A68D2075CBF01221A60704700BFCA
:10104800B4080020B0080020AC080020A808002040
:10105800A4080020A00800209C0800209808002070
:10106800244B1A68D0075CBF01221A60224B1A6809
:10107800D1075CBF01221A60204B1A68D2075CBFF7
:1010880001221A601E4B1A68D0075CBF01221A6041
:101098001C4B1A68D1075CBF01221A601A4B1A68E8
:1010A800D2075CBF01221A60184B1A68D0075CBFD0
:1010B80001221A60164B1A68D1075CBF01221A6018
:1010C800144B1A68D2075CBF01221A60124B1A68C7
:1010D800D0075CBF01221A60104B1A68D1075CBFA9
:1010E80001221A600E4B1A68D2075CBF01221A60EF
:1010F800704700BFE4080020E0080020DC0800205A
:10110800D8080020D4080020D0080020CC080020EF
:10111800C8080020C4080020C0080020BC0800201F
:10112800B808002080F0004002E000BF81F00041D4
:1011380042001FBF5FEA410392EA030F7FEA226C75
:101148007FEA236C6AD04FEA1262D2EB1363C1BF05
:10115800D218414048404140B8BF5B42192B88BF74
:10116800704710F0004F40F4000020F07F4018BF97
:10117800404211F0004F41F4000121F07F4118BFB7
:10118800494292EA030F3FD0A2F1010241FA03FC5F
:1011980010EB0C00C3F1200301FA03F100F0004347
:1011A80002D5494260EB4000B0F5000F13D3B0F10F
:1011B800807F06D340084FEA310102F10102FE2A7E
:1011C80051D2B1F1004F40EBC25008BF20F00100EE
:1011D80040EA03007047490040EB000010F4000F9C
:1011E800A2F10102EDD1B0FA80FCACF1080CB2EB2F
:1011F8000C0200FA0CF0AABF00EBC250524218438E
:10120800BCBFD0401843704792F0000F81F4000132
:1012180006BF80F400000132013BB5E74FEA410305
:101228007FEA226C18BF7FEA236C21D092EA030F71
:1012380004D092F0000F08BF0846704790EA010FEB
:101248001CBF0020704712F07F4F04D1400028BF18
:1012580040F00040704712F100723CBF00F50000FA
:10126800704700F0004343F0FE4040F40000704730
:101278007FEA226216BF08467FEA236301464202DC
:1012880006BF5FEA412390EA010F40F480007047EF
:101298004FF0000304E000BF10F0004348BF404295
:1012A8005FEA000C08BF704743F0964301464FF0D1
:1012B80000001CE050EA010208BF70474FF000032D
:1012C8000AE000BF50EA010208BF704711F000436E
:1012D80002D5404261EB41015FEA010C02BF84463E
:1012E8000146002043F0B64308BFA3F18053A3F59D
:1012F8000003BCFA8CF2083AA3EBC25310DB01FAE4
:1013080002FC634400FA02FCC2F12002BCF1004F67
:1013180020FA02F243EB020008BF20F001007047F8
:1013280002F1200201FA02FCC2F1200250EA4C004C
:1013380021FA02F243EB020008BF20EADC70704792
:101348004FF0FF0C1CEAD0521EBF1CEAD15392EAA0
:101358000C0F93EA0C0F6FD01A4480EA010C40027C
:1013680018BF5FEA41211ED04FF0006343EA5010D6
:1013780043EA5111A0FB01310CF00040B1F5000F18
:101388003EBF490041EAD3715B0040EA010062F1C7
:101398007F02FD2A1DD8B3F1004F40EBC25008BFB1
:1013A80020F00100704790F0000F0CF0004C08BFCF
:1013B80049024CEA502040EA51207F3AC2BFD2F19C
:1013C800FF0340EAC250704740F400004FF00003AA
:1013D800013A5DDC12F1190FDCBF00F000407047E4
:1013E800C2F10002410021FA02F1C2F1200200FA22
:1013F80002FC5FEA310040F1000053EA4C0308BFE9
:1014080020EADC70704792F0000F00F0004C02BF39
:10141800400010F4000F013AF9D040EA0C0093F0B4
:10142800000F01F0004C02BF490011F4000F013B0E
:10143800F9D041EA0C018FE70CEAD15392EA0C0F7C
:1014480018BF93EA0C0F0AD030F0004C18BF31F0E7
:10145800004CD8D180EA010000F00040704790F0BD
:10146800000F17BF90F0004F084691F0000F91F061
:10147800004F14D092EA0C0F01D142020FD193EA27
:101488000C0F03D14B0218BF084608D180EA0100AF
:1014980000F0004040F0FE4040F40000704740F08B
:1014A800FE4040F4400070474FF0FF0C1CEAD05259
:1014B8001EBF1CEAD15392EA0C0F93EA0C0F69D0B5
:1014C800A2EB030280EA010C49024FEA402037D020
:1014D8004FF0805343EA111143EA10130CF0004017
:1014E8008B4238BF5B0042F17D024FF4000C8B4207
:1014F80024BF5B1A40EA0C00B3EB510F24BFA3EBE7
:10150800510340EA5C00B3EB910F24BFA3EB9103B6
:1015180040EA9C00B3EBD10F24BFA3EBD10340EA10
:10152800DC001B0118BF5FEA1C1CE0D1FD2A3FF656
:1015380050AF8B4240EBC25008BF20F0010070470B
:101548000CF0004C4CEA50207F32C2BFD2F1FF03AE
:1015580040EAC250704740F400004FF00003013ADF
:1015680037E792F0000F00F0004C02BF400010F483
:10157800000F013AF9D040EA0C0093F0000F01F097
:10158800004C02BF490011F4000F013BF9D041EAB9
:101598000C0195E70CEAD15392EA0C0F08D14202EC
:1015A8007FF47DAF93EA0C0F7FF470AF084676E7BF
:1015B80093EA0C0F04D14B023FF44CAF08466EE798
:1015C80030F0004C18BF31F0004CCAD130F0004266
:1015D8007FF45CAF31F000437FF43CAF5FE700BFBE
:1015E8004FF0FF3C06E000BF4FF0010C02E000BFE7
:1015F8004FF0010C4DF804CD4FEA40024FEA410389
:101608007FEA226C18BF7FEA236C11D001B052EA3E
:10161800530C18BF90EA010F58BFB2EB030088BF04
:10162800C81738BF6FEAE17018BF40F00100704773
:101638007FEA226C02D15FEA402C05D17FEA236C55
:10164800E4D15FEA412CE1D05DF8040B704700BF9C
:10165800844608466146FFE70FB5FFF7C9FF002833
:1016680048BF10F1000F0FBD4DF808EDFFF7F4FF6C
:101678000CBF012000205DF808FB00BF4DF808ED05
:10168800FFF7EAFF34BF012000205DF808FB00BF28
:101698004DF808EDFFF7E0FF94BF012000205DF84A
:1016A80008FB00BF4DF808EDFFF7D2FF94BF0120FB
:1016B80000205DF808FB00BF4DF808EDFFF7C8FFF4
:1016C80034BF012000205DF808FB00BF4FEA40024C
:1016D800B2F1FE4F0FD34FF09E03B3EB12620DD958
:1016E8004FEA002343F0004310F0004F23FA02F0C2
:1016F80018BF404270474FF00000704712F1610F69
:1017080001D1420205D110F0004008BF6FF000403F
:1017180070474FF00000704710B5054C13462CB1C8
:101728000A4601460220AFF3008010BD204610BDD6
:101738000000000010B5431E0A44914204D011F87D
:10174800014B03F8014FF8E710BD034602449342EA
:1017580002D003F8011BFAE77047034613F8012B80
:10176800002AFBD1181A0138704700001D000A082A
:101778005D000A0889000A088D000A0800000000B8
:1017880073626B5369676E2F746F67676C654C691A
:10179800676874006C6967687453746174650000E5
:1017A800000000000000000053070A089D070A080F
:1017B80075070A0855070A087D070A0885070A08F1
:1017C8008D070A0895070A080000000000000000BD
:1017D800E3070A08D5070A08D7070A0866006C6EE7
:1017E80000666E00636F64650064657461696C000F
:1017F8000D0A00253031307520005D200025640079
:101808002C200028293A2000205B00636F646520A3
:101818003D200025690064657461696C73203D2072
:1018280000626175640053657269616C00555342CA
:1018380053657269616C310074797065007061720A
:10184800616D00636D6400696400686E64007374A0
:10185800726D0066696C74006C766C006164644833
:10186800616E646C65720072656D6F766548616E55
:10187800646C657200656E756D48616E646C657246
:1018880073004A534F4E53747265616D4C6F6748CD
:10189800616E646C657200617070006E6F6E6500D9
:1018A800747261636500696E666F007761726E00BD
:1018B8006572726F720070616E696300616C6C00B2
:1018C80000000000000000002D090A082F090A087E
:1018D8005A00252B3033643A253032750025592DAE
:1018E800256D2D25645425483A254D3A2553257AEA
:1018F8000061736374696D650000000000000000FA
:101908000000000085090A08A9090A08B5090A089B
:1019180059080A0891090A089D090A0897090A0836
:10192800A3090A0887090A088B090A0800000000A9
:10193800000000005D0A0A08A10A0A087B0A0A08D2
:1019480059080A08750A0A085F0A0A08670A0A088D
:101958009B0A0A086F0A0A08590A0A0800000000C8
:1019680000000000C70B0A08C5010A0889040A0814
:1019780049080A0811090A086B090A0871090A08BE
:10198800D10B0A08190E0A08490E0A089D0E0A0802
:10199800610F0A08E50F0A0869100A08000000002C
:0819A800000000000000000037
:0819B00000000000000000002F
:0819B80001000000F9180A0803
:1019C000FFFFFFFF00000102030405060708090AE4
:1019D0000B0C0D0E0F101112131415161718191ADF
:0819E0001B1C1D1E1F20280026
:0419E80078563412E7
:04000005080A0018CD
:00000001FF
