:02000004080AE8
:1000000000000A088C210A0800000500060005010E
:080010000402CF000000000013
:10001800301E0A0809480A4908B5884205D0094A25
:10002800824202D0121A01F0C7FE0748074A00218F
:10003800121A01F0CCFE064808BD00BF00030020DC
:10004800F8200A086C0300206C03002054090020E3
:100058005409002070B501F07DF9074B074C1E4686
:10006800E41AA4080025A54204D056F8253098477C
:100078000135F8E770BD00BFBC200A08F0200A0867
:1000880000F0BCB808B500F03DF8BDE8084001F044
:100098001FB900F0A7BB00F0ADBB0078B0FA80F044
:1000A8004009704701230370704710B40C46036879
:1000B8001168206810BC1847012A02D0022A02D011
:1000C80004E0016002E00B6800B1036000207047A3
:1000D80010B5044603689B689847A368013BA36072
:1000E8002BB923682046BDE81040DB68184710BDCF
:1000F80010B58368044613B1032201469847204689
:1001080010BD0000074B1B6813B9074800F061B920
:10011800012B06D140F6B83303220449024800F007
:10012800ADB97047D403002088030020B003002035
:100138001FB50C4B01221A600B4B02A81B780B4A07
:100148008DF800300A493C2300F0DCFC039828B104
:100158004368013B43600BB9FFF7BAFF012005B0C4
:100168005DF804FBD4030020A0030020441E0A0805
:10017800471E0A081FB50C4B00221A600B4B02A839
:100188001B780B4A8DF800300A493C2300F0BAFC72
:10019800039828B14368013B43600BB9FFF798FF08
:1001A800012005B05DF804FBD4030020A003002063
:1001B8005A1E0A08471E0A0810B5074C237823B1AF
:1001C800FFF7D8FF30B1002303E0FFF7B1FF08B114
:1001D80001232370012010BD0040024038B50023E0
:1001E80083608B6804460D462BB102229847EB6862
:1001F800E360AB68A360204638BD000010B5154B1E
:100208008AB00293144B02A90593144B06A80493D1
:10021800FFF7E4FF089B7BB11020FFF73AFF044685
:1002280050B106A9FFF7DAFF002301930093224695
:100238000B490C4800F0C6FA06A8FFF759FF02A8B8
:10024800FFF756FF002301220749084800F0AAFAE1
:100258000AB010BDC1010A08B3000A08C1000A08A3
:10026800B3080A085E1E0A08004002404F1E0A082A
:1002780073B5194B01241C70184E00F079F90094DD
:10028800234602220021164800F065F800231A468A
:10029800144DFF21304600F02BF800231946124C6C
:1002A800FF22284600F024F80022FF2311462046AA
:1002B80000F01EF896E807000C4B83E8070095E865
:1002C800070003F10C06183386E8070094E80700D6
:1002D80083E8070002B070BDA0030020700300206F
:1002E80088030020A40300207C030020B003002022
:1002F80010B580E80E0010BD82B0F8B5044606A817
:1003080080E80C004E6807980F68801B8D6801F024
:1003180005FB099901F056FB01F01AFD06440898FF
:10032800401B01F0FBFA099901F04CFB01F010FDAC
:1003380005440698C01B01F0F1FA099901F042FB47
:1003480001F006FD384484E84100A5602046BDE878
:10035800F84002B0704738B50446084684E80D00F6
:100368009DF81030012523732946256180B201F0DC
:1003780039F82946A08801F035F82089294601F086
:1003880031F8204638BD7FB5044604A800E90E00C0
:10039800237B0199029E039D206843B180B201F03E
:1003A80032F83146A08801F02EF829460BE0C1F159
:1003B800FF0180B201F027F8C6F1FF01A08801F023
:1003C80022F8C5F1FF01208904B0BDE8704001F0B2
:1003D8001AB81FB5002301930293039304AB13E9E2
:1003E8000E00FFF7D0FF05B05DF804FB70B5094CAF
:1003F80003692578002D14BF01264FF0FF363344DA
:100408009342036101DA8B4202DC85F00105257015
:1004180070BD00BF000300202DE9F0418AB00646F8
:1004280013984FF0190803AD90FBF8F085E80E001B
:1004380001F074FA0746306901F070FA394601F0A4
:1004480075FB129B0190009307AC10AB29460CCBAF
:100458002046FFF751FF94E80E003046FFF793FF60
:10046800404600F0DFF9384601F072FC00210246F0
:100478003046FFF7BBFF0AB0BDE8F0812DE9F04F29
:10048800D0F810A08BB00546884691461E46294CE8
:10049800294FBAF1000F0DD0192093FBF0F001F0AD
:1004A8003DFA8346504601F039FA0146584601F0B4
:1004B8001DFC68B123681F4A01334B4501DA1360FC
:1004C80006E0002313603A780AB909F001033B708B
:1004D80023680C245C430DF1100E08EB040207CAD4
:1004E8008EE807005A1C914514BF04F10C01002145
:1004F80007AC414407C984E8070003F001033A78D0
:1005080083F001039A42039615BF94E807009EE81A
:1005180007008DE807008DE8070018BF9EE80E0069
:10052800284608BF94E80E00FFF776FF0BB0BDE839
:10053800F08F00BFD8030020DC03002000F018B8BB
:1005480008B5024B1B681B6B019308BDD001060858
:1005580008B5024B1B685B68019308BD9C0106083F
:1005680008B5024B1B685B69019308BD9C0106082E
:1005780008B5024B1B681B68019308BDB00106084B
:1005880008B5024B1B685B68019308BDB0010608FB
:1005980008B5024B1B689B68019308BDB0010608AB
:1005A80008B5024B1B68DB68019308BDB00106085B
:1005B80008B5024B1B689B6A019308BDB001060889
:1005C80008B5024B1B689B6F019308BDB001060874
:1005D80008B5024B1B681B6E019308BDAC010608E9
:1005E80008B5024B1B685B6E019308BDAC01060899
:1005F80008B5024B1B689B6E019308BDAC01060849
:1006080008B5024B1B68DB6E019308BDAC010608F8
:1006180008B5024B1B681B6F019308BDAC010608A7
:1006280008B5024B1B685B6F019308BDAC01060857
:1006380008B5034B1B68D3F88030019308BD000050
:10064800AC01060808B5024B1B68DB69019308BDBD
:10065800B401060808B5024B1B681B6A019308BD64
:10066800B401060808B5024B1B689B69019308BDD5
:10067800C401060808B5024B1B685B6A019308BDF4
:10068800C401060808B5024B1B689B6A019308BDA4
:10069800C401060808B5024B1B68DB6A019308BD54
:1006A800C401060808B5024B1B681B6B019308BD03
:1006B800C401060808B5024B1B685B6B019308BDB3
:1006C800C401060808B5024B1B689B6B019308BD63
:1006D800C401060808B5024B1B681B6C019308BDD2
:1006E800C401060808B5024B1B681B68019308BDC6
:1006F800D801060808B5024B1B681B69019308BDA1
:10070800D801060808B5024B1B685B69019308BD50
:10071800D801060808B5024B1B689B69019308BD00
:10072800D801060808B5024B1B68DB69019308BDB0
:10073800D801060808B5024B1B681B6A019308BD5F
:10074800D801060808B5024B1B685B68019308BD11
:10075800A401060808B5024B1B685B69019308BD34
:10076800A401060808B5024B1B68DB6C019308BDA1
:10077800A401060808B5024B1B685B6D019308BD10
:10078800A401060808B5024B1B685B6E019308BDFF
:10079800A401060808B5024B1B689B6E019308BDAF
:1007A800A401060808B5024B1B681B68019308BD25
:1007B800CC01060808B5024B1B681B6A019308BDEB
:1007C800CC01060808B5024B1B685B6A019308BD9B
:1007D800CC01060808B5024B1B681B69019308BDCC
:1007E800C801060808B5024B1B681B68019308BDC1
:1007F800A001060808B5024B1B685B68019308BD99
:10080800A001060808B5024B1B68DB6A019308BD06
:10081800A001060808B5024B1B681B6B019308BDB5
:10082800A00106080021FFF795BF10B583680446AC
:100838000BB900F06EFEC3689847A3681BB103228A
:100848002146204698472046BDE81040FFF723BCC4
:1008580070470020704710B50446FFF71CFC20467F
:1008680010BD08B508B1FFF7F6FF08BD38B5C46874
:10087800D4B12378022B02D1E068FFF7BBFF65688B
:100888002DB12846FFF734FC2846FFF704FCA5687D
:100898002DB12846FFF72CFC2846FFF7FCFB204625
:1008A800BDE83840FFF7F7BB38BD07B58DE806004F
:1008B80082680AB900F02DFEC36801AA6946984704
:1008C80003B05DF804FB38B5046805467CB163687D
:1008D800013B63605BB9236820469B689847A3681F
:1008E800013BA3601BB923682046DB68984728466C
:1008F80038BD13B5044691E8050000234B600B6032
:100908002060626001A801930093FFF7DCFF204696
:1009180002B010BD0B68036013B15A6801325A6007
:100928007047F7B50C4606460F4654F8043B02AD2F
:1009380045F8083D214601A8FFF7ECFF2946304657
:10094800FFF7D7FF01A8FFF7BEFF2046FFF7BBFF61
:100958003846FFF7A0FB304603B0F0BD13B50B4691
:10096800044603C88DE8030093E8030084E8030005
:100978009DE8030083E8030002B010BD826810B54B
:100988000AB900F0C6FDC368BDE81040184708B5AD
:10099800006800F11001FFF7F1FF08BD826810B58B
:1009A8000AB900F0B6FDC368BDE81040184708B59D
:1009B800006800F11001FFF7F1FF08BD38B500230A
:1009C80083608B6804460D462BB102229847EB687A
:1009D800E360AB68A360204638BD00002DE9F04114
:1009E8004FF69C7304684FF0020086B0B1F90420FA
:1009F8008B8000230F688DF800300B60D4E84F1F00
:100A0800994203D1C4E8450F002DF7D102D08DF8E3
:100A180000106BE014F10C051CBFE7602282BFF3E5
:100A28005F8F18BF1F4601236370BFF35F8F04F108
:100A38000803002053E8006F43E80002002AF9D1B8
:100A4800BFF35F8F002E51D0FFF78CFE20B12946EF
:100A58003046FFF793FF43E031466846FFF7AEFFA5
:100A6800E068B4F9105008B101F0BAF90490102008
:100A7800ADF81450FFF70DFB054630B34FF00008F2
:100A8800C0F808801820FFF704FB0446C0B1C0F87E
:100A9800088001466846FFF761FF029BA268A360D1
:100AA800039B0292E268E360BDF814300392A382CC
:100AB8004FF69C73ADF81430049BCDF81080236179
:100AC8000D4B2C60EB600D4BAB600498FFF792FE6A
:100AD8006846FFF70DFB002229460948FFF74AFE42
:100AE8003046FFF705FB3046FFF7D5FA3846FFF7E3
:100AF80081FE06B0BDE8F08197090A08F50B0A08DF
:100B080033080A082DE9F04F8BB007AD4FF0000B02
:100B18000646994614200C230F4690469DF850A08F
:100B2800C5F804B0C5F808B00793FFF7B2FA044651
:100B380038B180F800B080F801B0C0F804B0C0F84F
:100B480008B00023102003940493FFF7A2FA28B1F9
:100B5800012343608360234BC4600360224B0490ED
:100B680008200893FFF795FA044628B1039B04A9C7
:100B780040F8043BFFF7CEFE00955FFA8AF34A4639
:100B8800414638460994FFF715FEB8B9039B5B78D0
:100B980003F0FF0293B94FF69C7305A903A80592C9
:100BA800ADF81830FFF71AFF0598FFF723FE05A8E0
:100BB8000999FFF7B6FE06A8FFF785FE039B04A96F
:100BC80006A80593FFF7A6FE05A93046FFF791FE94
:100BD80006A8FFF778FE04A8FFF775FE30460BB0AD
:100BE800BDE8F08F7C1E0A085D0D0A08022AF8B5D8
:100BF800044606D0032A17D0012A20D10B680360C7
:100C08001DE018200E68FFF744FA054650B131463A
:100C1800FFF7D4FE3069B6F9147008B101F0E0F8B6
:100C28002861AF8225600AE0046844B12069FFF7B3
:100C3800E1FD2046FFF75CFA2046FFF72CFA00207A
:100C4800F8BD38B5002383608B6804460D462BB188
:100C580002229847EB68E360AB68A360204638BD82
:100C6800022A70B5044606D0032A11D0012A17D1EA
:100C78000B68036014E014200E68FFF70AFA0546B3
:100C880020B13146FFF7DDFF337C2B74256007E088
:100C980004682CB12046FFF72BFA2046FFF7FBF932
:100CA800002070BDF0B50C46BFF35F8F87B00023FE
:100CB80050E8006F40E80032002AF9D1BFF35F8F97
:100CC800002E3ED01846FFF74DFD074620B12146BD
:100CD8003046FFF763FE2EE0314601A8FFF7B1FF6B
:100CE800237810208DF81430FFF7D3F90546D0B1DA
:100CF80087601420FFF7CDF9044678B18760014674
:100D080001A8FFF72BFE039BA268A360049B039234
:100D1800E268E3609DF81430049223740A4B2C6057
:100D2800EB600A4BAB6001A8FFF7E2F90022294605
:100D38000748FFF71FFD3046FFF7DAF93046FFF79F
:100D4800AAF907B0F0BD00BFB7090A08690C0A087C
:100D580033080A0830B5044685B00D466846114682
:100D6800FFF7DFFD7CB124B228460DB101F038F859
:100D7800029002A96846ADF80C40FFF72FFE0298D2
:100D8800FFF738FD1DE04FF0010200988DF808408C
:100D9800D0E84F3FA34203D1C0E8412F0029F7D143
:100DA80002D08DF808300CE010F10C014FF001036F
:100DB80018BF0373BFF35F8F043000F8033CFFF7DD
:100DC80071FF01A8FFF77FFD05B030BD7047F8B58A
:100DD800064615460C468F18BC4206D0336814F8F0
:100DE800011B9B6830469847F6E72846F8BD002265
:100DF800007CFFF7EDBB0021007CFFF7F1BB002171
:100E0800007CFFF7F5BB0021007CFFF7F9BB002150
:100E1800007CFFF7FDBB10B50446FFF73CF9204600
:100E280010BD000010B5044608464FF47A73A3605D
:100E3800044B0021207461602360FFF7F9FB204612
:100E480010BD00BF981E0A080021007CFFF7E8BB10
:100E5800704710B50446FFF71EF9204610BDF8B5D7
:100E68000F4600F10806051D002416F8011D0A2288
:100E7800384600F082F8AE42044407D0002CF4D083
:100E88002E21384600F04CF80444EEE72046F8BD21
:100E980010B59DF8084044EA032343EA024242EAB7
:100EA800016104234160037510BD000037B5044D8E
:100EB80005609DF818500095FFF7EAFF03B030BDB4
:100EC800C01E0A08014A024B1A607047851F0A08AB
:100ED800E0030020F8B506460D468F180024BD42F1
:100EE8000CD0336815F8011B9B68304698470028DA
:100EF80001DB0444F3E7002C08BF04462046F8BD94
:100F080070B505460C46084649B100F084FF2B68C9
:100F1800024621462846BDE87040DB68184770BD88
:100F280003689B681847012A98BF0A2230B50B4608
:100F38008BB000218DF824100DF12304B3FBF2F5DA
:100F480005FB1233DBB2092B94BF30333733DBB2E6
:100F5800214604F801392B46002DEFD1FFF7D0FFC9
:100F68000BB030BD10B422B90368C9B29B6810BC7D
:100F78001847D2B210BCFFF7D6BFFFF7F3BF10B5C2
:100F88000446FFF7B5F8204610BD000003480023CB
:100F98008360034A034900F0B7BA00BFE4030020A6
:100FA8006C030020870F0A08704710B50446FFF746
:100FB80072F8204610BD000070B504460E46074B77
:100FC8000025036040F80C5FFFF7BAFA3046267137
:100FD800FFF738FBA560204670BD00BFB81F0A08A0
:100FE8000079FFF737BB0020FFF7ACBB024B1A684C
:100FF800024B1A60704700BF04030020F40300206E
:10100800704741747047007CFFF764BB007CFFF7B2
:1010180039BB007CFFF746BB007CFFF73BBB007C7D
:10102800FFF748BB10B50446FFF735F8204610BD5A
:1010380070B5457C04460E4625B9007CFFF74AFB8F
:10104800002805DD3146207CBDE87040FFF712BB63
:10105800284670BD10B50446084611460022626055
:101068004FF47A72A260054A2074226001226274E9
:101078001A46FFF7F7FA204610BD00BFF41F0A080A
:10108800007CFFF71FBB000038B50C4D296811F034
:10109800010411D12846FFF700F868B1084A214633
:1010A800084B0948FFF7D6FF2846FEF7FBFF074A1B
:1010B8000749054800F028FA034838BD9004002085
:1010C800940400200C040020F80300206C03002086
:1010D80009100A084174704770470021007CFFF727
:1010E80019BB0121007CFFF715BB007CFFF70ABB89
:1010F800007CFFF7FFBA38B50446007C0D46FFF7C1
:1011080001FB002801DC607C20B12946207CFFF728
:1011180009FB012038BD007CFFF70CBB10B5044665
:10112800FEF7B9FF204610BD10B5044600236360E2
:101138004FF47A73A360054B08462360012321749A
:1011480063741146FFF7CEFA204610BD24200A0822
:1011580010B504461422002100F039FE054B204644
:101168006360054BE36040F20113238181232382EE
:1011780010BD00BF9D0500201C05002030B50E4D98
:1011880087B001A8FFF7E4FF296811F0010410D126
:101198002846FEF782FF60B101AA21460748FFF7FB
:1011A800C3FF2846FEF77EFF054A0649034800F0BC
:1011B800ABF9024807B030BD18050020A006002092
:1011C8006C030020E1100A0810B50446142200211F
:1011D80000F0FDFD054B20466360054BE36040F2DF
:1011E800011323818123238210BD00BF50070020F3
:1011F800B806002010B50E4C86B001A8FFF7E4FF32
:101208002368DB0710D42046FEF747FF60B101AA28
:1012180001210848FFF788FF2046FEF743FF064AEA
:101228000649044800F070F9024806B010BD00BF36
:10123800B40600203C0700206C030020E1100A08D7
:101248007047002211461046FFF7C4BA0348044B02
:10125800044A0549036000F057B900BF540800204C
:1012680054200A086C03002049120A0808B5144BD8
:1012780033B1FFF783FF03681B699847002816DC22
:10128800104B33B1FFF700FF03681B69984700282C
:1012980010DC0D4B0BB1AFF300800C4B7BB1FFF7AB
:1012A800A9FF03681B699847002806DC08BDAFF34F
:1012B8000080E5E7AFF30080EBE7AFF3008008BDFF
:1012C8000000000000000000000000000000000016
:1012D80008B5FFF7CBFFFFF743F9014B186008BDCE
:1012E800600800200248034A0349121A00F064BD4E
:1012F8000040024008400240F0200A0800207047E1
:1013080037B5436804460A2B0ED0502B1CD1104B1E
:101318001D68CDB1037D4FF400710093C26800F1E0
:1013280010038068A84707E000F11003C2684FF473
:1013380000718068FFF7E2FF30B1002220461146B5
:10134800FFF728FA012000E0002003B030BD00BFFD
:101358005808002038B50C4C0C4D2368AB420C4B98
:101368000CBF012200221A7002D0FFF7BBFF2560D4
:10137800084B1BB1FFF7ECF8AFF30080BDE838402D
:1013880000210548FFF7FEB9044002401E1C279AB9
:101398005C0800200000000009130A0810B5044684
:1013A8000F48FFF71DFE28B1A4F10D03022B01D849
:1013B800002010BD00F04EF8FFF746FD08B1012CE3
:1013C800F6D9FFF761FEFFF75BFE18B1A4F112032F
:1013D800012BEDD9172C8CBF0020012010BD00BFB8
:1013E80094080020172838B504460D460AD8FF2966
:1013F80008D0FFF7D3FF28B129462046BDE838407A
:10140800FFF7C6B838BD38B504460D46FFF7C6FF26
:10141800F0B104212046FFF7B3F8042805D1A9B29A
:101428002046BDE83840FFF7C3B802212046FFF741
:10143800A7F802280CD12046FFF7B2F8012801D0FE
:10144800042805D129462046BDE83840FFF7B8B83A
:1014580038BD000038B50B4D296811F001040FD1D3
:101468002846FEF71AFE58B121460748FFF7DAFC6E
:101478002846FEF717FE054A0549034800F044F8D8
:10148800014838BD64080020680800206C0300206B
:10149800D50D0A0813B5084C00231A4619460093BF
:1014A8002046FFF703FD2046044A054902B0BDE87F
:1014B800104000F029B800BF7C0800206C03002011
:1014C800590E0A0870B50C4C0C4E0D4D00212046E3
:1014D800FFF772FD20460B4C3246294600F014F8FF
:1014E80001212046FFF768FD324629462046BDE81F
:1014F800704000F009B800BF940800206C03002079
:10150800B10F0A08A40800200B460146184600F04F
:1015180045BC08B5FFF776F9244B1A68D0075CBFBD
:1015280001221A60224B1A68D1075CBF01221A6097
:10153800204B1A68D2075CBF01221A601E4B1A683A
:10154800D0075CBF01221A601C4B1A68D1075CBF28
:1015580001221A601A4B1A68D2075CBF01221A606E
:10156800184B1A68D0075CBF01221A60164B1A681C
:10157800D1075CBF01221A60144B1A68D2075CBFFE
:1015880001221A60124B1A68D0075CBF01221A6048
:10159800104B1A68D1075CBF01221A600E4B1A68FB
:1015A800D2075CBF01221A60704700BFE008002024
:1015B800DC080020D8080020D4080020D00800202B
:1015C800CC080020C8080020C4080020C00800205B
:1015D800BC080020B8080020B4080020184B1A687E
:1015E800D1075CBF01221A60164B1A68D2075CBF8C
:1015F80001221A60144B1A68D0075CBF01221A60D6
:10160800124B1A68D1075CBF01221A60104B1A6886
:10161800D2075CBF01221A600E4B1A68D0075CBF64
:1016280001221A600C4B1A68D1075CBF01221A60AC
:101638000A4B1A68D2075CBF01221A60704700BFC4
:1016480000090020FC080020F8080020F408002009
:10165800F0080020EC080020E8080020E40800203A
:10166800184B1A68D1075CBF01221A60164B1A681A
:10167800D2075CBF01221A60144B1A68D0075CBFFE
:1016880001221A60124B1A68D1075CBF01221A6046
:10169800104B1A68D2075CBF01221A600E4B1A68F9
:1016A800D0075CBF01221A600C4B1A68D1075CBFD7
:1016B80001221A600A4B1A68D2075CBF01221A601D
:1016C800704700BF200900201C09002018090020CD
:1016D80014090020100900200C0900200809002026
:1016E80004090020244B1A68D0075CBF01221A6045
:1016F800224B1A68D1075CBF01221A60204B1A6876
:10170800D2075CBF01221A601E4B1A68D0075CBF63
:1017180001221A601C4B1A68D1075CBF01221A60AB
:101728001A4B1A68D2075CBF01221A60184B1A6854
:10173800D0075CBF01221A60164B1A68D1075CBF3C
:1017480001221A60144B1A68D2075CBF01221A6082
:10175800124B1A68D0075CBF01221A60104B1A6836
:10176800D1075CBF01221A600E4B1A68D2075CBF12
:1017780001221A60704700BF500900204C09002060
:101788004809002044090020400900203C090020A5
:101798003809002034090020300900202C090020D5
:1017A800280900202409002080F0004002E000BF42
:1017B80081F0004142001FBF5FEA410392EA030F34
:1017C8007FEA226C7FEA236C6AD04FEA1262D2EB7E
:1017D8001363C1BFD218414048404140B8BF5B4283
:1017E800192B88BF704710F0004F40F4000020F01C
:1017F8007F4018BF404211F0004F41F4000121F032
:101808007F4118BF494292EA030F3FD0A2F101027B
:1018180041FA03FC10EB0C00C3F1200301FA03F1B9
:1018280000F0004302D5494260EB4000B0F5000FDC
:1018380013D3B0F1807F06D340084FEA310102F19B
:101848000102FE2A51D2B1F1004F40EBC25008BF4D
:1018580020F0010040EA03007047490040EB000017
:1018680010F4000FA2F10102EDD1B0FA80FCACF146
:10187800080CB2EB0C0200FA0CF0AABF00EBC25045
:1018880052421843BCBFD0401843704792F0000F33
:1018980081F4000106BF80F400000132013BB5E786
:1018A8004FEA41037FEA226C18BF7FEA236C21D0FC
:1018B80092EA030F04D092F0000F08BF0846704761
:1018C80090EA010F1CBF0020704712F07F4F04D12F
:1018D800400028BF40F00040704712F100723CBF42
:1018E80000F50000704700F0004343F0FE4040F46C
:1018F800000070477FEA226216BF08467FEA23632A
:101908000146420206BF5FEA412390EA010F40F414
:10191800800070474FF0000304E000BF10F0004360
:1019280048BF40425FEA000C08BF704743F0964347
:1019380001464FF000001CE050EA010208BF704762
:101948004FF000030AE000BF50EA010208BF7047E9
:1019580011F0004302D5404261EB41015FEA010CFE
:1019680002BF84460146002043F0B64308BFA3F1F6
:101978008053A3F50003BCFA8CF2083AA3EBC253D8
:1019880010DB01FA02FC634400FA02FCC2F12002F7
:10199800BCF1004F20FA02F243EB020008BF20F02E
:1019A8000100704702F1200201FA02FCC2F1200294
:1019B80050EA4C0021FA02F243EB020008BF20EA89
:1019C800DC7070474FF0FF0C1CEAD0521EBF1CEAB7
:1019D800D15392EA0C0F93EA0C0F6FD01A4480EAA5
:1019E800010C400218BF5FEA41211ED04FF000638E
:1019F80043EA501043EA5111A0FB01310CF00040BA
:101A0800B1F5000F3EBF490041EAD3715B0040EADF
:101A1800010062F17F02FD2A1DD8B3F1004F40EBAF
:101A2800C25008BF20F00100704790F0000F0CF082
:101A3800004C08BF49024CEA502040EA51207F3A46
:101A4800C2BFD2F1FF0340EAC250704740F4000021
:101A58004FF00003013A5DDC12F1190FDCBF00F012
:101A680000407047C2F10002410021FA02F1C2F1C0
:101A7800200200FA02FC5FEA310040F1000053EA5C
:101A88004C0308BF20EADC70704792F0000F00F0AA
:101A9800004C02BF400010F4000F013AF9D040EAB0
:101AA8000C0093F0000F01F0004C02BF490011F444
:101AB800000F013BF9D041EA0C018FE70CEAD15342
:101AC80092EA0C0F18BF93EA0C0F0AD030F0004CC2
:101AD80018BF31F0004CD8D180EA010000F0004076
:101AE800704790F0000F17BF90F0004F084691F034
:101AF800000F91F0004F14D092EA0C0F01D142026E
:101B08000FD193EA0C0F03D14B0218BF084608D136
:101B180080EA010000F0004040F0FE4040F4000080
:101B2800704740F0FE4040F4400070474FF0FF0C13
:101B38001CEAD0521EBF1CEAD15392EA0C0F93EA5A
:101B48000C0F69D0A2EB030280EA010C49024FEAAC
:101B5800402037D04FF0805343EA111143EA101365
:101B68000CF000408B4238BF5B0042F17D024FF41D
:101B7800000C8B4224BF5B1A40EA0C00B3EB510FF8
:101B880024BFA3EB510340EA5C00B3EB910F24BFE1
:101B9800A3EB910340EA9C00B3EBD10F24BFA3EB66
:101BA800D10340EADC001B0118BF5FEA1C1CE0D12E
:101BB800FD2A3FF650AF8B4240EBC25008BF20F0E1
:101BC800010070470CF0004C4CEA50207F32C2BF35
:101BD800D2F1FF0340EAC250704740F400004FF0D2
:101BE8000003013A37E792F0000F00F0004C02BF03
:101BF800400010F4000F013AF9D040EA0C0093F0CD
:101C0800000F01F0004C02BF490011F4000F013B26
:101C1800F9D041EA0C0195E70CEAD15392EA0C0F8E
:101C280008D142027FF47DAF93EA0C0F7FF470AFC6
:101C3800084676E793EA0C0F04D14B023FF44CAF09
:101C480008466EE730F0004C18BF31F0004CCAD19E
:101C580030F000427FF45CAF31F000437FF43CAFDA
:101C68005FE700BF4FF0FF3C06E000BF4FF0010CFC
:101C780002E000BF4FF0010C4DF804CD4FEA4002DE
:101C88004FEA41037FEA226C18BF7FEA236C11D028
:101C980001B052EA530C18BF90EA010F58BFB2EBDB
:101CA800030088BFC81738BF6FEAE17018BF40F05B
:101CB800010070477FEA226C02D15FEA402C05D10F
:101CC8007FEA236CE4D15FEA412CE1D05DF8040B94
:101CD800704700BF844608466146FFE70FB5FFF727
:101CE800C9FF002848BF10F1000F0FBD4DF808EDDF
:101CF800FFF7F4FF0CBF012000205DF808FB00BFD0
:101D08004DF808EDFFF7EAFF34BF012000205DF829
:101D180008FB00BF4DF808EDFFF7E0FF94BF012076
:101D280000205DF808FB00BF4DF808EDFFF7D2FF73
:101D380094BF012000205DF808FB00BF4DF808EDB6
:101D4800FFF7C8FF34BF012000205DF808FB00BF83
:101D58004FEA4002B2F1FE4F0FD34FF09E03B3EBB0
:101D680012620DD94FEA002343F0004310F0004FF0
:101D780023FA02F018BF404270474FF00000704746
:101D880012F1610F01D1420205D110F0004008BFE5
:101D98006FF0004070474FF00000704710B5054CD9
:101DA80013462CB10A4601460220AFF3008010BD4D
:101DB800204610BD0000000010B5431E0A449142A1
:101DC80004D011F8014B03F8014FF8E710BD0346A2
:101DD8000244934202D003F8011BFAE7704700005F
:101DE800024B0146186800F003B800BF68030020E2
:101DF80070B5064608460C4600F00DF8451C294605
:101E08003046FEF707FD064618B12A462146FFF779
:101E1800D3FF304670BD034613F8012B002AFBD1CF
:101E2800181A0138704700001D000A085D000A08EA
:101E380089000A088D000A08000000006F6E007310
:101E4800626B5369676E2F6C696768745374617449
:101E580065006F66660073626B5369676E2F746FF7
:101E680067676C654C6967687400000000000000D3
:101E78000000000059080A085F080A0875080A08DF
:101E88006B080A085B080A08000000000000000050
:101E9800D50D0A081F0E0A08F70D0A08D70D0A08FB
:101EA800FF0D0A08070E0A080F0E0A08170E0A087F
:101EB8000000000000000000670E0A08590E0A081A
:101EC8005B0E0A086C6E00666E00636F64650064E2
:101ED800657461696C000D0A002530313075200089
:101EE8005D20002564002C200028293A2000205B72
:101EF80000636F6465203D20002569006465746196
:101F0800696C73203D2000626175640053657269D5
:101F1800616C0055534253657269616C3100747984
:101F2800706500706172616D00636D6400696400C2
:101F3800686E64007374726D0066696C74006C7608
:101F48006C0061646448616E646C65720072656DF2
:101F58006F766548616E646C657200656E756D4874
:101F6800616E646C657273004A534F4E53747265A8
:101F7800616D4C6F6748616E646C6572006170706A
:101F8800006E6F6E6500747261636500696E666FDE
:101F9800007761726E006572726F720070616E69AF
:101FA8006300616C6C00000000000000000000008D
:101FB800B10F0A08B30F0A085A00252B3033643AC8
:101FC800253032750025592D256D2D256454254859
:101FD8003A254D3A2553257A0061736374696D6516
:101FE80000000000000000000000000009100A08BE
:101FF8002D100A0839100A08DD0E0A0815100A08FB
:1020080021100A081B100A0827100A080B100A08D2
:102018000F100A080000000000000000E1100A0884
:1020280025110A08FF100A08DD0E0A08F9100A0827
:10203800E3100A08EB100A081F110A08F3100A082F
:10204800DD100A0800000000000000004B120A081A
:102058000000000000000000000000000000000078
:102068000000000000000000000000000000000068
:102078000000000000000000000000000000000058
:102088000000000000000000000000000000000048
:102098000000000000000000000000000000000038
:1020A8000000000000000000000000000000000028
:1020B8004300000079020A0845050A08CD0E0A08FF
:1020C800950F0A08EF0F0A08F50F0A0855120A08B3
:1020D8009D140A08CD140A0821150A08E5150A08EE
:0820E80069160A08ED160A084A
:0820F0000000000000000000E8
:1020F80001000000E11F0A080000000058200A083B
:1021080078200A0898200A08000000000000000053
:102118000000000000000000B8200A0800000000CD
:1021280000000000000000000000000000000000A7
:102138000000000000000000000000000000000097
:102148000000000000000000000000000000000087
:0C21580000000000000000000803002050
:10216400FFFFFFFF00000102030405060708090A38
:102174000B0C0D0E0F101112131415161718191A33
:082184001B1C1D1E1F2028007A
:04218C00785634123B
:04000005080A0018CD
:00000001FF
