:02000004080AE8
:1000000000000A0814190A0800000500060005018E
:080010000402360100000000AB
:10001800C8150A0809480A4908B5884205D0094A96
:10002800824202D0121A01F061FA0748074A0021F9
:10003800121A01F066FA064808BD00BF0003002046
:1000480084180A086803002068030020EC080020D0
:10005800EC08002070B501F003F8074B074C1E466A
:10006800E41AA4080025A54204D056F8253098477C
:100078000135F8E770BD00BF50180A0880180A0853
:1000880000F086B808B500F03FF8BDE8084000F079
:10009800A9BF00F013BA00F019BA0078B0FA80F0DE
:1000A8004009704701230370704710B40C46036879
:1000B8001168206810BC1847012A02D0022A02D011
:1000C80004E0016002E00B6800B1036000207047A3
:1000D80008B50846054901F045FA054B08B901225B
:1000E80000E000221A70012008BD00BFDC150A08D4
:1000F8006D03002010B58368044613B1032201463E
:100108009847204610BD00001FB5062001F022F8D0
:100118000246E8B9134B14491B7802A88DF8003041
:100128003C2300F05BFB039C7CB16368013B63608C
:100138005BB9236820469B689847A368013BA36086
:100148001BB923682046DB689847C82000F0D6F919
:10015800064B197801B10121072000F0E2FF04B035
:1001680010BD00BF6C030020DF150A086D030020D6
:1001780038B5002383608B6804460D462BB10222F4
:100188009847EB68E360AB68A360204638BD000081
:1001980010B501218AB0072000F0B2FF0221062025
:1001A80000F0AEFF114B02A90293114B06A805936C
:1001B800104B0493FFF7DCFF089B7BB11020FFF77F
:1001C80068FF044650B106A9FFF7D2FF0023019348
:1001D800009322460849094800F058F906A8FFF795
:1001E80089FF02A8FFF786FF0AB010BDD9000A08E8
:1001F800B3000A08C1000A088B050A08F3150A08A3
:10020800024B01221A7000F023B800BF6C030020D3
:1002180008B5024B1B681B6B019308BDD00106088B
:1002280008B5024B1B68DB6E019308BDB8010608D0
:1002380008B5024B1B685B68019308BD9C01060862
:1002480008B5024B1B685B69019308BD9C01060851
:1002580008B5024B1B681B68019308BDB00106086E
:1002680008B5024B1B689B68019308BDB0010608DE
:1002780008B5024B1B68DB68019308BDB00106088E
:1002880008B5024B1B681B69019308BDB00106083D
:1002980008B5024B1B685B69019308BDB0010608ED
:1002A80008B5024B1B681B6E019308BDAC0106081C
:1002B80008B5024B1B685B6E019308BDAC010608CC
:1002C80008B5024B1B689B6E019308BDAC0106087C
:1002D80008B5024B1B68DB6E019308BDAC0106082C
:1002E80008B5024B1B681B6F019308BDAC010608DB
:1002F80008B5024B1B685B6F019308BDAC0106088B
:1003080008B5034B1B68D3F88030019308BD000083
:10031800AC01060808B5024B1B68DB69019308BDF0
:10032800B401060808B5024B1B681B6A019308BD97
:10033800B401060808B5024B1B689B69019308BD08
:10034800C401060808B5024B1B685B6A019308BD27
:10035800C401060808B5024B1B689B6A019308BDD7
:10036800C401060808B5024B1B68DB6A019308BD87
:10037800C401060808B5024B1B681B6B019308BD36
:10038800C401060808B5024B1B685B6B019308BDE6
:10039800C401060808B5024B1B689B6B019308BD96
:1003A800C401060808B5024B1B681B6C019308BD05
:1003B800C401060808B5024B1B681B68019308BDF9
:1003C800D801060808B5024B1B681B69019308BDD4
:1003D800D801060808B5024B1B685B69019308BD84
:1003E800D801060808B5024B1B689B69019308BD34
:1003F800D801060808B5024B1B68DB69019308BDE4
:10040800D801060808B5024B1B681B6A019308BD92
:10041800D801060808B5024B1B685B68019308BD44
:10042800A401060808B5024B1B685B69019308BD67
:10043800A401060808B5024B1B68DB6C019308BDD4
:10044800A401060808B5024B1B685B6D019308BD43
:10045800A401060808B5034B1B68D3F89030019334
:1004680008BD0000A401060808B5034B1B68D3F8B3
:100478009C30019308BD0000A401060808B5024B92
:100488001B681B6A019308BDCC01060808B5024B1E
:100498001B685B6A019308BDCC01060808B5024BCE
:1004A8001B68DB6B019308BDCC01060808B5024B3D
:1004B8001B681B69019308BDC801060808B5024BF3
:1004C8001B681B68019308BDA001060808B5024B0C
:1004D8001B685B68019308BDA001060808B5024BBC
:1004E8001B68DB6A019308BDA001060808B5024B2A
:1004F8001B681B6B019308BDA00106080021FFF7CC
:1005080091BF10B5836804460BB900F096FEC36826
:100518009847A3681BB103222146204698472046E6
:10052800BDE81040FFF7B7BD70470020704710B511
:100538000446FFF7B0FD204610BD08B508B1FFF727
:10054800F6FF08BD38B5C468D4B12378022B02D1B0
:10055800E068FFF7BBFF65682DB12846FFF7CAFDC5
:100568002846FFF798FDA5682DB12846FFF7C2FD7C
:100578002846FFF790FD2046BDE83840FFF78BBDC1
:1005880038BD07B58DE8060082680AB900F055FE47
:10059800C36801AA6946984703B05DF804FB38B5FB
:1005A800046805467CB16368013B63605BB92368F6
:1005B80020469B689847A368013BA3601BB9236842
:1005C8002046DB689847284638BD13B5044691E8AD
:1005D800050000234B600B602060626001A8019356
:1005E8000093FFF7DCFF204602B010BD0B680360E4
:1005F80013B15A6801325A607047F7B50C4606467F
:100608000F4654F8043B02AD45F8083D214601A8C1
:10061800FFF7ECFF29463046FFF7D7FF01A8FFF7A1
:10062800BEFF2046FFF7BBFF3846FFF734FD3046D4
:1006380003B0F0BD13B50B46044603C88DE80300AC
:1006480093E8030084E803009DE8030083E80300BF
:1006580002B010BD826810B50AB900F0EEFDC3689B
:10066800BDE81040184708B5006800F11001FFF711
:10067800F1FF08BD826810B50AB900F0DEFDC36855
:10068800BDE81040184708B5006800F11001FFF7F1
:10069800F1FF08BD38B5002383608B6804460D461A
:1006A8002BB102229847EB68E360AB68A360204651
:1006B80038BD00002DE9F0414FF69C7304684FF0F7
:1006C800020086B0B1F904208B8000230F688DF8F2
:1006D80000300B60D4E84F1F994203D1C4E8450F9E
:1006E800002DF7D102D08DF800106BE014F10C0545
:1006F8001CBFE7602282BFF35F8F18BF1F4601232C
:100708006370BFF35F8F04F10803002053E8006FA4
:1007180043E80002002AF9D1BFF35F8F002E51D0C1
:10072800FFF788FE20B129463046FFF793FF43E0E4
:1007380031466846FFF7AEFFE068B4F9105008B1DB
:1007480000F01AFF04901020ADF81450FFF7A1FC38
:10075800054630B34FF00008C0F808801820FFF7AE
:1007680098FC0446C0B1C0F8088001466846FFF707
:1007780061FF029BA268A360039B0292E268E360A8
:10078800BDF814300392A3824FF69C73ADF8143071
:10079800049BCDF8108023610D4B2C60EB600D4B52
:1007A800AB600498FFF792FE6846FFF7A3FC0022AF
:1007B80029460948FFF746FE3046FFF79BFC3046BE
:1007C800FFF769FC3846FFF781FE06B0BDE8F08107
:1007D8006F060A08CD080A080B050A082DE9F04F2C
:1007E8008BB007AD4FF0000B0646994614200C233A
:1007F8000F4690469DF850A0C5F804B0C5F808B05B
:100808000793FFF746FC044638B180F800B080F83B
:1008180001B0C0F804B0C0F808B000231020039459
:100828000493FFF736FC28B1012343608360234B10
:10083800C4600360224B049008200893FFF729FC4A
:10084800044628B1039B04A940F8043BFFF7CEFEF9
:1008580000955FFA8AF34A46414638460994FFF7FD
:100868000DFEB8B9039B5B7803F0FF0293B94FF60E
:100878009C7305A903A80592ADF81830FFF71AFF75
:100888000598FFF723FE05A80999FFF7B6FE06A805
:10089800FFF785FE039B04A906A80593FFF7A6FEAC
:1008A80005A93046FFF791FE06A8FFF778FE04A8D1
:1008B800FFF775FE30460BB0BDE8F08F10160A083A
:1008C800350A0A08022AF8B5044606D0032A17D0C2
:1008D800012A20D10B6803601DE018200E68FFF77D
:1008E800D8FB054650B13146FFF7D4FE3069B6F95A
:1008F800147008B100F040FE2861AF8225600AE05C
:10090800046844B12069FFF7E1FD2046FFF7F2FBD8
:100918002046FFF7C0FB0020F8BD38B500238360F0
:100928008B6804460D462BB102229847EB68E360BA
:10093800AB68A360204638BD022A70B5044606D0CD
:10094800032A11D0012A17D10B68036014E0142080
:100958000E68FFF79EFB054620B13146FFF7DDFF25
:10096800337C2B74256007E004682CB12046FFF720
:10097800C1FB2046FFF78FFB002070BDF0B50C4689
:10098800BFF35F8F87B0002350E8006F40E8003264
:10099800002AF9D1BFF35F8F002E3ED01846FFF72B
:1009A80049FD074620B121463046FFF763FE2EE099
:1009B800314601A8FFF7B1FF237810208DF81430D5
:1009C800FFF767FB0546D0B187601420FFF761FB8E
:1009D800044678B18760014601A8FFF72BFE039B08
:1009E800A268A360049B0392E268E3609DF8143058
:1009F800049223740A4B2C60EB600A4BAB6001A88D
:100A0800FFF778FB002229460748FFF71BFD304611
:100A1800FFF770FB3046FFF73EFB07B0F0BD00BFA5
:100A28008F060A0841090A080B050A0830B504466A
:100A380085B00D4668461146FFF7DFFD7CB124B24C
:100A480028460DB100F098FD029002A96846ADF85D
:100A58000C40FFF72FFE0298FFF738FD1DE04FF01E
:100A6800010200988DF80840D0E84F3FA34203D117
:100A7800C0E8412F0029F7D102D08DF808300CE0EA
:100A880010F10C014FF0010318BF0373BFF35F8F20
:100A9800043000F8033CFFF771FF01A8FFF77FFD62
:100AA80005B030BD7047F8B5064615460C468F1898
:100AB800BC4206D0336814F8011B9B68304698473F
:100AC800F6E72846F8BD0022007CFFF7E9BB0021C5
:100AD800007CFFF7EDBB0021007CFFF7F1BB002194
:100AE800007CFFF7F5BB0021007CFFF7F9BB10B5D0
:100AF8000446FFF7D0FA204610BD000010B50446A2
:100B080008464FF47A73A360044B00212074616097
:100B18002360FFF7F5FB204610BD00BF2C160A081E
:100B28000021007CFFF7E4BB704710B50446FFF7CF
:100B3800B2FA204610BDF8B50F4600F10806051DAB
:100B4800002416F8011D0A22384600F082F8AE4249
:100B5800044407D0002CF4D02E21384600F04CF87D
:100B68000444EEE72046F8BD10B59DF8084044EA75
:100B7800032343EA024242EA016104234160037508
:100B880010BD000037B5044D05609DF8185000955C
:100B9800FFF7EAFF03B030BD54160A08014A024BBA
:100BA8001A6070471B170A0870030020F8B506463C
:100BB8000D468F180024BD420CD0336815F8011B70
:100BC8009B6830469847002801DB0444F3E7002C73
:100BD80008BF04462046F8BD70B505460C460846D1
:100BE80049B100F0E4FC2B68024621462846BDE8DE
:100BF8007040DB68184770BD03689B681847012A76
:100C080098BF0A2230B50B468BB000218DF824100E
:100C18000DF12304B3FBF2F505FB1233DBB2092B0C
:100C280094BF30333733DBB2214604F801392B4601
:100C3800002DEFD1FFF7D0FF0BB030BD10B422B9B3
:100C48000368C9B29B6810BC1847D2B210BCFFF742
:100C5800D6BFFFF7F3BF10B50446FFF74BFA20469F
:100C680010BD0000034800238360034A034900F0D5
:100C7800DFBA00BF74030020680300205F0C0A0875
:100C8800704710B50446FFF706FA204610BD00006D
:100C980070B504460E46074B0025036040F80C5F0C
:100CA800FFF7B6FA30462671FFF734FBA5602046F9
:100CB80070BD00BF4C170A080079FFF733BB00006E
:100CC8004FF69C7337B50D4C002563804FF6FF73C4
:100CD8002846A3802570FFF79DFB02A840F8045D15
:100CE8002A462946FFF79CFA019B1E2B04D10323B1
:100CF800237011236580A38003B030BD84030020D6
:100D0800024B1A68024B1A60704700BF00030020AC
:100D18008C030020704741747047007CFFF742BB8A
:100D2800007CFFF717BB007CFFF724BB007CFFF7B4
:100D380019BB007CFFF726BB10B50446FFF7ABF9DB
:100D4800204610BD70B5457C04460E4625B9007C8A
:100D5800FFF728FB002805DD3146207CBDE8704000
:100D6800FFF7F0BA284670BD10B50446084611468C
:100D7800002262604FF47A72A260054A20742260F1
:100D8800012262741A46FFF7D5FA204610BD00BF4B
:100D980088170A08007CFFF7FDBA000038B50C4D2B
:100DA800296811F0010411D12846FFF776F968B1D6
:100DB800084A2146084B0948FFF7D6FF2846FFF79F
:100DC80071F9074A0749054800F032FA034838BD67
:100DD800280400202C040020A403002090030020F5
:100DE800680300201D0D0A084174704770470021F0
:100DF800007CFFF7F7BA0121007CFFF7F3BA007C0B
:100E0800FFF7E8BA007CFFF7DDBA38B50446007C86
:100E18000D46FFF7DFFA002801DC607C20B1294687
:100E2800207CFFF7E7FA012038BD007CFFF7EABA1B
:100E380010B50446FFF72FF9204610BD10B504463B
:100E4800002363604FF47A73A360054B0846236060
:100E58000123217463741146FFF7ACFA204610BDD4
:100E6800B8170A0810B504461422002100F049FBFF
:100E7800054B20466360054BE36040F20113238174
:100E88008123238210BD00BF35050020B404002053
:100E980030B50E4D87B001A8FFF7E4FF296811F0BF
:100EA800010410D12846FFF7F8F860B101AA2146DD
:100EB8000748FFF7C3FF2846FFF7F4F8054A064935
:100EC800034800F0B5F9024807B030BDB00400206F
:100ED8003806002068030020F50D0A0810B50446FE
:100EE8001422002100F00DFB054B20466360054BE2
:100EF800E36040F2011323818123238210BD00BFE8
:100F0800E80600205006002010B50E4C86B001A857
:100F1800FFF7E4FF2368DB0710D42046FFF7BDF88E
:100F280060B101AA01210848FFF788FF2046FFF7B2
:100F3800B9F8064A0649044800F07AF9024806B0AA
:100F480010BD00BF4C060020D40600206803002016
:100F5800F50D0A087047002211461046FFF7A6BA99
:100F68000348044B044A0549036000F061B900BF17
:100F7800EC070020E8170A08680300205D0F0A083C
:100F880008B5144B33B1FFF783FF03681B69984713
:100F9800002816DC104B33B1FFF700FF03681B690C
:100FA8009847002810DC0D4B0BB1AFF300800C4BB9
:100FB8007BB1FFF7A9FF03681B699847002806DC87
:100FC80008BDAFF30080E5E7AFF30080EBE7AFF3D0
:100FD800008008BD000000000000000000000000C4
:100FE8000000000008B5FFF7CBFFFFF729F9014B18
:100FF800186008BDF80700200248034A0349121A7E
:1010080000F074BA004002400440024080180A0808
:1010180007B5002300931A466FF07701FFF724FA0B
:1010280003B05DF804FB000007B543880A2B08D01D
:10103800502B09D1094B1B683BB103B05DF804EB99
:101048001847FFF7E5FF06E0002300931A466FF004
:101058007701FFF709FA03B05DF804FBF0070020F9
:1010680038B5104C104D2368AB42104B0CBF012211
:1010780000221A7002D0FFF7BFFF2560FFF7D8F8EB
:1010880000F048FA0A4B1BB1FFF7D2F8AFF3008023
:1010980000210748FFF702FABDE83840002105485B
:1010A800FFF7D8B9004002401E1C279AF407002019
:1010B8000000000031100A0810B504460F48FFF779
:1010C800FBFD28B1A4F10D03022B01D8002010BDAF
:1010D80000F054F8FFF724FD08B1012CF6D9FFF70A
:1010E8005DFEFFF757FE18B1A4F11203012BEDD9ED
:1010F800172C8CBF0020012010BD00BF2C08002039
:10110800172838B504460D460AD8FF2908D0FFF736
:10111800D3FF28B129462046BDE83840FFF7A0B8DC
:1011280038BD38B504460D46FFF7A2F8FF2810D0A1
:10113800062804D84D2323FA00F0C30709D4204613
:10114800FFF7BAFF28B129462046BDE83840FFF727
:1011580097B838BD10B50446FFF78AF80438C0B20E
:10116800012808D92046FFF7A7FF20B12046BDE88F
:101178001040FFF78DB8002010BD000038B50B4DAA
:10118800296811F001040FD12846FEF786FF58B1EF
:1011980021460748FFF7B2FC2846FEF783FF054AB9
:1011A8000549034800F044F8014838BDFC07002011
:1011B8000008002068030020AD0A0A0813B5084C8F
:1011C80000231A46194600932046FFF7DBFC204609
:1011D800044A054902B0BDE8104000F029B800BF34
:1011E8001408002068030020310B0A0870B50C4C65
:1011F8000C4E0D4D00212046FFF74AFD20460B4CB2
:101208003246294600F014F801212046FFF740FD38
:10121800324629462046BDE8704000F009B800BFB4
:101228002C08002068030020890C0A083C080020CC
:101238000B460146184600F04BB908B5FFF74EF9C2
:10124800244B1A68D0075CBF01221A60224B1A6827
:10125800D1075CBF01221A60204B1A68D2075CBF15
:1012680001221A601E4B1A68D0075CBF01221A605F
:101278001C4B1A68D1075CBF01221A601A4B1A6806
:10128800D2075CBF01221A60184B1A68D0075CBFEE
:1012980001221A60164B1A68D1075CBF01221A6036
:1012A800144B1A68D2075CBF01221A60124B1A68E5
:1012B800D0075CBF01221A60104B1A68D1075CBFC7
:1012C80001221A600E4B1A68D2075CBF01221A600D
:1012D800704700BF780800207408002070080020BC
:1012E8006C080020680800206408002060080020BE
:1012F8005C080020580800205408002050080020EE
:101308004C080020184B1A68D1075CBF01221A60EC
:10131800164B1A68D2075CBF01221A60144B1A6870
:10132800D0075CBF01221A60124B1A68D1075CBF54
:1013380001221A60104B1A68D2075CBF01221A609A
:101348000E4B1A68D0075CBF01221A600C4B1A6852
:10135800D1075CBF01221A600A4B1A68D2075CBF2A
:1013680001221A60704700BF9808002094080020E6
:10137800900800208C08002088080020840800209D
:10138800800800207C080020184B1A68D1075CBF31
:1013980001221A60164B1A68D2075CBF01221A6034
:1013A800144B1A68D0075CBF01221A60124B1A68E6
:1013B800D1075CBF01221A60104B1A68D2075CBFC4
:1013C80001221A600E4B1A68D0075CBF01221A600E
:1013D8000C4B1A68D1075CBF01221A600A4B1A68C5
:1013E800D2075CBF01221A60704700BFB80800200E
:1013F800B4080020B0080020AC080020A80800208D
:10140800A4080020A00800209C080020244B1A688B
:10141800D0075CBF01221A60224B1A68D1075CBF53
:1014280001221A60204B1A68D2075CBF01221A6099
:101438001E4B1A68D0075CBF01221A601C4B1A6841
:10144800D1075CBF01221A601A4B1A68D2075CBF29
:1014580001221A60184B1A68D0075CBF01221A6073
:10146800164B1A68D1075CBF01221A60144B1A6820
:10147800D2075CBF01221A60124B1A68D0075CBF02
:1014880001221A60104B1A68D1075CBF01221A604A
:101498000E4B1A68D2075CBF01221A60704700BF62
:1014A800E8080020E4080020E0080020DC0800200C
:1014B800D8080020D4080020D0080020CC0800203C
:1014C800C8080020C4080020C0080020BC0800206C
:1014D80010B5054C13462CB10A4601460220AFF35D
:1014E800008010BD204610BD0000000010B5431E4E
:1014F8000A44914204D011F8014B03F8014FF8E770
:1015080010BD03460244934202D003F8011BFAE7D8
:101518007047000038B5124B05461C68A36BD3B959
:101528001820FEF7CBFF43F20E33A06303804AF680
:10153800CD33438041F2342383804EF26D63C38000
:101548004DF6EC630381052343810B23838101223C
:101558000023C0E90423A36B00221D615A6138BD32
:101568006403002010F8012B11F8013B012A28BF61
:101578009A42F7D0D01A7047024B0146186800F01B
:1015880003B800BF6403002070B5064608460C4641
:1015980000F00DF8451C29463046FEF7A7FF064621
:1015A80018B12A462146FFF7A1FF304670BD034611
:1015B80013F8012B002AFBD1181A013870470000D4
:1015C8001D000A085D000A0889000A088D000A083B
:1015D800000000006F6E0073626B5369676E2F74B2
:1015E8006F67676C654C696768740073626B5369F1
:1015F800676E2F6C696768745374617465000000C6
:10160800000000000000000031050A0837050A083C
:101618004D050A0843050A0833050A0800000000BA
:1016280000000000AD0A0A08F70A0A08CF0A0A08EB
:10163800AF0A0A08D70A0A08DF0A0A08E70A0A08E6
:10164800EF0A0A0800000000000000003F0B0A082B
:10165800310B0A08330B0A0866006C6E00666E00D0
:10166800636F64650064657461696C000D0A002528
:101678003031307520005D20002564002C200028C2
:10168800293A2000205B00636F6465203D20002517
:10169800690064657461696C73203D20006261753E
:1016A800640053657269616C0055534253657269F1
:1016B800616C31007479706500706172616D0063EE
:1016C8006D6400696400686E64007374726D00660E
:1016D800696C74006C766C0061646448616E646C5B
:1016E80065720072656D6F766548616E646C6572CF
:1016F80000656E756D48616E646C657273004A535F
:101708004F4E53747265616D4C6F6748616E646CBF
:10171800657200617070006E6F6E6500747261634F
:101728006500696E666F007761726E006572726F30
:10173800720070616E696300616C6C0000000000EB
:1017480000000000890C0A088B0C0A085A00252B97
:101758003033643A253032750025592D256D2D25F5
:10176800645425483A254D3A2553257A0061736318
:1017780074696D65000000000000000000000000B2
:101788001D0D0A08410D0A084D0D0A08B50B0A0877
:10179800290D0A08350D0A082F0D0A083B0D0A08FD
:1017A8001F0D0A08230D0A080000000000000000B1
:1017B800F50D0A08390E0A08130E0A08B50B0A08AF
:1017C8000D0E0A08F70D0A08FF0D0A08330E0A085D
:1017D800070E0A08F10D0A080000000000000000CA
:1017E8005F0F0A0800000000000000000000000071
:1017F80000000000000000000000000000000000E1
:1018080000000000000000000000000000000000D0
:1018180000000000000000000000000000000000C0
:1018280000000000000000000000000000000000B0
:1018380000000000000000000000000000000000A0
:10184800000000004300000009020A08A50B0A086E
:101858006D0C0A08C90C0A08090D0A08690F0A085C
:10186800C5110A08F5110A0849120A080D130A08D1
:0818780091130A0815140A0877
:041880000000000064
:1018840075170A0800000000EC170A080C180A086B
:101894002C180A08000000000000000000000000EE
:1018A400000000004C180A080000000000000000BE
:1018B4000000000000000000000000000000000024
:1018C4000000000000000000000000000000000014
:1018D4000000000000000000000000000000000004
:0818E4000000000004030020D5
:1018EC00FFFFFFFF00000102030405060708090AB9
:1018FC000B0C0D0E0F101112131415161718191AB4
:08190C001B1C1D1E1F202800FA
:0419140078563412BB
:04000005080A0018CD
:00000001FF
